S010000033326269744350552E7372656388
S11300000C9458000C946A000C946A000C946A00D6
S11300100C946A000C946A000C946A000C946A00B4
S11300200C946A000C946A000C946A000C946A00A4
S11300300C946A000C946A000C946A000C946A0094
S11300400C946A000C946A000C946A000C946A0084
S11300500C946A000C946A000C946A000C946A0074
S11300600C946A000C946A005605BB01D201F0019D
S113007005021D0233024C025B028202A902D00275
S1130080FD022A0357037E03A503D203FF032204C0
S113009045046804CB04D404E104EE04FB040A051B
S11300A019059104A2045405A904BA0426053D05C2
S11300B011241FBECFEFD8E0DEBFCDBF25E0A0E006
S11300C0B1E001C01D92A038B207E1F70E94990582
S11300D00C9414070C9400008F929F92AF92BF92DD
S11300E0CF92DF92EF92FF920F931F93CF93F6017B
S11300F0A081CA2FC07EC0836D3071058105910532
S113010029F158F46B3071058105910589F06C3043
S113011071058105910599F04BC060317105810528
S11301209105D9F06131710581059105E9F040C06F
S1130130CA01B9016E297F29802B912B3CC0CA01C9
S1130140B9016E217F218023912335C0CA01B901F1
S11301506E257F25802791272EC0CA01B9016E0D17
S11301607F1D801F911F27C0DA01C9018E199F09C5
S1130170A00BB10BBC01CD017F5F8F4F9F4FA1E05E
S113018027FFA0E0812C912C540193948E189F0892
S1130190A00AB10A11E087FE10E01A130CC021E096
S11301A067FF20E0A21739F03C2F3260308303C090
S11301B060E070E0CB01611571058105910519F4CA
S11301C0208124602083308133FB442740F931FBB4
S11301D0222720F9241719F0232F20612083CF919F
S11301E01F910F91FF90EF90DF90CF90BF90AF9051
S11301F09F908F90089510928C0110928D0110920F
S11302008E0110928F011092900110929101109220
S113021092011092930110928B0110928A01109214
S11302208901109288011092870110928601109220
S11302308501109281011092820110928301109223
S113024084011092800180E090E0DC010EC0FC018A
S1130250EE0FFF1FEE0FFF1FE050FF4F10821182C1
S1130260128213820196A11DB11D80329105A10550
S1130270B10568F30E9464050E946F060E949E0502
S11302800895CF92DF92EF92FF920F931F93CF9333
S1130290DF9380918001813041F120F0823009F4B4
S11302A05EC007C480918A0190918B010E9451061F
S11302B020938C0130938D0140938E0150938F01D4
S11302C060939001709391018093920190939301B4
S11302D080918A0190918B01019690938B01809378
S11302E08A0181E080938001E6C3B0918C01A091E2
S11302F08D01F0918E01E0918F01F09090011091A9
S11303009101D0919201C09193012B2F3A2F4F2F3D
S11303105E2F6F2D712F8D2F9C2F00E30E94F80606
S113032020938701309388012B2F3A2F4F2F5E2F74
S11303306F2D712F8D2F9C2F00E20E94F8062093C1
S1130340850130938601B0938101A0938201F093DB
S11303508301E093840182E080938001ACC3E09147
S11303608701F0918801E432F10508F09DC3EC5C4B
S1130370FF4F0C94F006E0918501F0918601EE0F99
S1130380FF1FEE0FFF1FE050FF4F809181019091FE
S11303908201A0918301B091840180839183A2831F
S11303A0B38384C3E0918501F0918601A09181011A
S11303B0B0918201AA0FBB1FAA0FBB1FA050BF4F51
S11303C08D919D910D90BC91A02DEE0FFF1FEE0F0E
S11303D0FF1FE050FF4F80839183A283B38366C3E2
S11303E0E0918101F0918201EE0FFF1FEE0FFF1FDC
S11303F0E050FF4F4081518162817381809185017A
S1130400909186010E94770551C3C0918501D091D6
S1130410860180918101909182010E948B05CC0F0D
S1130420DD1FCC0FDD1FC050DF4F90E0A0E0B0E037
S113043088839983AA83BB8339C3E0918101F091B6
S11304408201EE0FFF1FEE0FFF1FE050FF4F4081B0
S11304505181628173818091850190918601939588
S11304600E94770523C3C0918501D09186018091B4
S113047081019091820193950E948B05CC0FDD1F21
S1130480CC0FDD1FC050DF4F90E0A0E0B0E08883C8
S11304909983AA83BB830AC3E0918501F091860105
S11304A0EE0FFF1FEE0FFF1FE050FF4F108211826F
S11304B012821382FBC2C0918501D0918601E09023
S11304C08101F09082010091830110918401CC0F8D
S11304D0DD1FCC0FDD1FC050DF4F288139814A81D9
S11304E05B810F2EF9E8CF2EF1E0DF2EF02D6BE0CB
S11304F070E080E090E00E946C00688379838A83D6
S11305009B83D4C2C0918501D0918601E090810182
S1130510F09082010091830110918401CC0FDD1FC2
S1130520CC0FDD1FC050DF4F288139814A815B81A8
S11305300F2EF9E8CF2EF1E0DF2EF02D6CE070E005
S113054080E090E00E946C00688379838A839B83B7
S1130550ADC2C0918501D0918601E0908101F090F7
S113056082010091830110918401CC0FDD1FCC0F17
S1130570DD1FC050DF4F288139814A815B810F2EF6
S1130580F9E8CF2EF1E0DF2EF02D6DE070E080E091
S113059090E00E946C00688379838A839B8386C27F
S11305A0C0918501D0918601E0918101F091820191
S11305B0EE0FFF1FEE0FFF1FE050FF4FE080F180B2
S11305C002811381CC0FDD1FCC0FDD1FC050DF4F24
S11305D0288139814A815B810F2EF9E8CF2EF1E021
S11305E0DF2EF02D6BE070E080E090E00E946C0064
S11305F0688379838A839B8359C2C0918501D09192
S11306008601E0918101F0918201EE0FFF1FEE0F50
S1130610FF1FE050FF4FE080F18002811381CC0F77
S1130620DD1FCC0FDD1FC050DF4F288139814A8187
S11306305B810F2EF9E8CF2EF1E0DF2EF02D6CE078
S113064070E080E090E00E946C00688379838A8384
S11306509B832CC2C0918501D0918601E0918101D8
S1130660F0918201EE0FFF1FEE0FFF1FE050FF4FCE
S1130670E080F18002811381CC0FDD1FCC0FDD1FE0
S1130680C050DF4F288139814A815B810F2EF9E800
S1130690CF2EF1E0DF2EF02D6DE070E080E090E0F1
S11306A00E946C00688379838A839B83FFC1C09115
S11306B08501D0918601E0908101F0908201009142
S11306C0830110918401CC0FDD1FCC0FDD1FC050BE
S11306D0DF4F288139814A815B810F2EF9E8CF2EC3
S11306E0F1E0DF2EF02D60E170E080E090E00E9408
S11306F06C00688379838A839B83D8C1C091850108
S1130700D0918601E0908101F090820100918301F3
S113071010918401CC0FDD1FCC0FDD1FC050DF4FC3
S1130720288139814A815B810F2EF9E8CF2EF1E0CF
S1130730DF2EF02D61E170E080E090E00E946C001B
S1130740688379838A839B83B1C1C0918501D091E9
S11307508601E0918101F0918201EE0FFF1FEE0FFF
S1130760FF1FE050FF4FE080F18002811381CC0F26
S1130770DD1FCC0FDD1FC050DF4F288139814A8136
S11307805B810F2EF9E8CF2EF1E0DF2EF02D60E132
S113079070E080E090E00E946C00688379838A8333
S11307A09B8384C1C0918501D0918601E091810130
S11307B0F0918201EE0FFF1FEE0FFF1FE050FF4F7D
S11307C0E080F18002811381CC0FDD1FCC0FDD1F8F
S11307D0C050DF4F288139814A815B810F2EF9E8AF
S11307E0CF2EF1E0DF2EF02D61E170E080E090E0AB
S11307F00E946C00688379838A839B8357C1C0916C
S11308008501D0918601CC0FDD1FCC0FDD1FC050B8
S1130810DF4F288139814A815B810F2EF9E8CF2E81
S1130820F1E0DF2EF02DE12CF12C8701E39460E15F
S113083070E080E090E00E946C00688379838A8392
S11308409B8334C1C0918501D0918601CC0FDD1FFB
S1130850CC0FDD1FC050DF4F288139814A815B8175
S11308600F2EF9E8CF2EF1E0DF2EF02DE12CF12C44
S11308708701E39461E170E080E090E00E946C0005
S1130880688379838A839B8311C1E0918501F09108
S11308908601EE0FFF1FEE0FFF1FE050FF4F208178
S11308A0318142815381E0908101F0908201009175
S11308B08301109184010F2EF9E8CF2EF1E0DF2E91
S11308C0F02D61E170E080E090E00E946C00EEC0E9
S11308D0E0918101F0918201EE0FFF1FEE0FFF1FE7
S11308E0E050FF4FE080F18002811381E0918501A7
S11308F0F0918601EE0FFF1FEE0FFF1FE050FF4F38
S113090020813181428153810F2EF9E8CF2EF1E00D
S1130910DF2EF02D61E170E080E090E00E946C0039
S1130920C5C060918A0170918B0180E090E00E94C3
S11309308B06809185019091860190938B01809321
S11309408A01B4C00E94BF0670938B0160938A0130
S1130950ADC0E0918501F0918601EE0FFF1FEE0F0F
S1130960FF1FE050FF4F60817181828193810E945B
S11309708B069CC0C0918501D09186010E94BF0660
S1130980CC0FDD1FCC0FDD1FC050DF4F6883798390
S11309908A839B838BC0809185019091860190937B
S11309A08B0180938A0182C08091890182FF7EC07D
S11309B0809185019091860190938B0180938A01A7
S11309C075C08091890182FD71C0809185019091EB
S11309D0860190938B0180938A0168C0809189017C
S11309E084FD64C0809185019091860190938B0170
S11309F080938A015BC08091890184FD57C082FD88
S1130A0055C0809185019091860190938B018093CC
S1130A108A014CC08091890184FD02C082FF46C0D6
S1130A20809185019091860190938B0180938A0136
S1130A303DC08091890184FF39C0809185019091E6
S1130A40860190938B0180938A0130C0E0918501E7
S1130A50F0918601EE0FFF1FEE0FFF1FE050FF4FD6
S1130A6080819181A281B381880F991FAA1FBB1F26
S1130A7080839183A283B38319C0E0918501F091AF
S1130A808601EE0FFF1FEE0FFF1FE050FF4F808126
S1130A909181A281B381B695A79597958795808317
S1130AA09183A283B38302C00E94FB001092800151
S1130AB002C00E94FB00DF91CF911F910F91FF9024
S1130AC0EF90DF90CF90089580E090E00CC0FC019F
S1130AD0EE0FFF1FEE0FFF1FEC56FE4F1082118228
S1130AE01282138201968436910588F30895843620
S1130AF0910570F4880F991F880F991FFC01EC561B
S1130B00FE4F408351836283738380E090E00895B5
S1130B1081E090E008958436910548F4880F991F88
S1130B20880F991FFC01EC56FE4F8081089580E0E8
S1130B3008950E94FB000E944101FDCF809124038F
S1130B408111AEC0E5E2F3E01082118212821382B9
S1130B5014821582168217821086118612861386D5
S1130B60148615861686178682E0808B118A128A6F
S1130B70138A148A158A168A178A20E2208F118E06
S1130B80128E138E148E158E168E178E10A211A22D
S1130B9012A213A214A215A216A217A281E080A782
S1130BA011A612A613A614A615A616A617A69EEF9E
S1130BB090AB9FEF91AB92AB93AB14AA15AA16AA74
S1130BC017AA90E190AF11AE12AE13AE14AE15AEEB
S1130BD016AE17AEE5E6F3E010821182128213829C
S1130BE01482158216821782EDE6F3E08083118267
S1130BF0128213821482158216821782E5E7F3E0CB
S1130C0080831182128213821482158216821782C3
S1130C10EDE7F3E09083118212821382148215822D
S1130C2016821782E5E8F3E01082118212821382A1
S1130C301482158216821782EDE8F3E08083118214
S1130C40128213821482158216821782E5E9F3E078
S1130C509083118212821382148215821682178263
S1130C60EDE9F3E02083118212821382148215824B
S1130C7016821782E5EAF3E09083118212821382CE
S1130C801482158216821782EDEAF3E01082118233
S1130C90128213821482158216821782809324038F
S1130CA008958931910590F4880F991F880F991F31
S1130CB0880F991FFC01EB5DFC4F2081318142813B
S1130CC053816481758186819781089520E030E0A5
S1130CD040E050E060E070E080E090E0089580E063
S1130CE090E00CC0FC01EE0FFF1FEE0FFF1FE05160
S1130CF0FC4F108211821282138201968436910570
S1130D0088F383E690E09093EF038093EE0381E011
S1130D108093ED0308954091EE035091EF03411544
S1130D20510551F12091ED03222389F09A01220FFC
S1130D30331F220F331FF901E051FC4F608371838D
S1130D40828393831092ED0380E090E008959A01EA
S1130D50215031093093EF032093EE03220F331F08
S1130D60220F331FF901E051FC4F608371838283AA
S1130D70938380E090E0089581E090E0089580916D
S1130D80ED03811129C08091EE039091EF03833626
S1130D90910598F49C012F5F3F4F3093EF0320930C
S1130DA0EE03880F991F880F991FFC01E051FC4F37
S1130DB06081718182819381089521E02093ED0304
S1130DC0880F991F880F991FFC01E051FC4F608127
S1130DD0718182819381089560E070E0CB01089570
S1130DE0EE0FFF1F0590F491E02D099497FB10F886
S1130DF0169400080F93083098F00850232F342FCE
S1130E00452F562F672F782F892F902DF4CF0594D7
S1130E10979587957795679557954795379527952E
S10F0E200A95AAF70F910895F894FFCFEB
S9030000FC
