:100000000C945E000C9470000C9470000C947000C2
:100010000C9470000C9470000C9470000C947000A0
:100020000C9470000C9470000C9470000C94700090
:100030000C9470000C9470000C9470000C94700080
:100040000C9470000C9470000C9470000C94700070
:100050000C9470000C9470000C9470000C94700060
:100060000C9470000C9470007E07E502FC021A03E9
:100070004F03640379038E039D03C403EB0312044F
:100080003F046C049904C004E704140541056405A9
:100090008705AA05D305DC05E905F6050306120662
:1000A00021062E063F0646065206630674068B0698
:1000B000A206A806AE06DE061507450711241FBED8
:1000C000CFEFD8E0DEBFCDBF28E0A0E0B1E001C0B7
:1000D0001D92A43AB207E1F70E94CF070C946B0976
:1000E0000C9400004F925F926F927F928F929F923A
:1000F000AF92BF92CF92DF92EF92FF920F931F9336
:10010000CF93DF93F601A081A07ECA2EA0836D302D
:1001100071058105910549F158F46B307105810530
:10012000910589F06C30710581059105A9F055C0E4
:10013000603171058105910509F161317105810514
:10014000910529F14AC0DA01C9018E299F29A02B06
:10015000B12BBC01CD0145C0DA01C9018E219F211F
:10016000A023B123BC01CD013CC0DA01C9018E2519
:100170009F25A027B127BC01CD0133C0DA01C901F9
:100180008E0D9F1DA01FB11FBC01CD012AC02901EA
:100190003A014E185F08600A710A8FEF581A680A10
:1001A000780AC301B201DD24D39427FFD12C812C1E
:1001B000912C540193948E189F08A00AB10A41E033
:1001C00087FE40E04D110DC041E047FE40E0D416EF
:1001D00041F03C2D3260308304C060E070E080E08C
:1001E00090E0611571058105910519F42081246065
:1001F0002083208123FB332730F921FB442740F95A
:10020000431711F020612083DF91CF911F910F914F
:10021000FF90EF90DF90CF90BF90AF909F908F9026
:100220007F906F905F904F90089514B817B81AB8E8
:1002300015B818B81BB808958F929F92AF92BF92CD
:10024000CF92DF92EF92FF9280E090E00E94BB0796
:100250004B015C0181E090E00E94BB076B017C01D7
:1002600089B143B150E060E070E0762F652F542FE4
:100270004427482B86B190E0A0E0B0E0DC0199274C
:100280008827482B592B6A2B7B2B82E090E00E9419
:10029000A607BB27AB2D9A2D892D84B9C501AA27A6
:1002A000BB2787B98AB8BB27AF2D9E2D8D2D85B969
:1002B000C701AA27BB2788B9CBB8FF90EF90DF9082
:1002C000CF90BF90AF909F908F9008958F929F9204
:1002D000AF92BF92CF92DF92EF92FF920F931F9354
:1002E00082E090E00E94BB076B017C0185E090E01A
:1002F0000E94BB078B019C0140E050E0BA0146C060
:1003000081E090E0042E02C0880F991F0A94E2F762
:10031000092E000CAA0BBB0B480159018822992217
:10032000AA22BB2289288A288B2861F1F1E04601A4
:10033000570188229922AA22BB2289288A288B2841
:1003400009F4F0E08090000190900101A09002017A
:10035000B090030188219921AA21BB21E1E0892BDA
:100360008A2B8B2B09F4E0E0FE1761F084E090E02B
:100370000E94BB07AB01BC01416084E090E00E9499
:10038000A6070AC04F5F5F4F6F4F7F4F4032510546
:100390006105710508F4B4CFC0920001D09201014B
:1003A000E0920201F09203011F910F91FF90EF90F4
:1003B000DF90CF90BF90AF909F908F900895CF9394
:1003C000DF93EC0160918E0170918F0180E090E0ED
:1003D0000E94E20880918D018F7D80938D01D093E2
:1003E0008F01C0938E01DF91CF910895CF938091BB
:1003F0008D0185FF1CC084E090E00E94BB07C62FE2
:1004000083E090E00E94BB07C0FF11C060FF0FC0F7
:1004100084E090E00E94BB07AB01BC014E7F84E00A
:1004200090E00E94A60782E090E00E94DF01CF9159
:1004300008951092900110929101109292011092E1
:1004400093011092940110929501109296011092CE
:10045000970110928F0110928E0110928D011092CF
:100460008C0110928B0110928A01109289011092D6
:1004700085011092860110928701109288011092D6
:100480008401109200011092010110920201109259
:10049000030180E090E0DC010EC0FC01EE0FFF1FC5
:1004A000EE0FFF1FEC5FFE4F10821182128213824B
:1004B0000196A11DB11D80329105A105B10568F31A
:1004C0000E9492070E94C6080E94D4070E9415014C
:1004D0000895CF92DF92EF92FF920F931F93CF93E5
:1004E000DF9380918401813041F120F0823009F462
:1004F00060C009C580918E0190918F010E94A8086B
:100500002093900130939101409392015093930175
:100510006093940170939501809396019093970155
:1005200080918E0190918F01019690938F0180931D
:100530008E0181E080938401E8C4B0919001A09184
:100540009101F0919201E0919301F090940110914A
:100550009501D0919601C09197012B2F3A2F4F2FE3
:100560005E2F6F2D712F8D2F9C2F00E30E944F095E
:10057000822F932F90938C0180938B012B2F3A2FF6
:100580004F2F5E2F6F2D712F8D2F9C2F00E20E9419
:100590004F092093890130938A01B0938501A0937C
:1005A0008601F0938701E093880182E080938401C3
:1005B000ACC4E0918B01F0918C01EA32F10508F0B6
:1005C0009BC4EC5CFF4F0C944709E0918901F091CA
:1005D0008A01EE0FFF1FEE0FFF1FEC5FFE4F8091B1
:1005E000850190918601A0918701B0918801808357
:1005F0009183A283B38382C4E0918901F0918A013F
:10060000A0918501B0918601AA0FBB1FAA0FBB1F45
:10061000AC5FBE4F8D919D910D90BC91A02DEE0FC2
:10062000FF1FEE0FFF1FEC5FFE4F80839183A283BD
:10063000B38364C48091890190918A0182309105CD
:10064000E9F481E090E00E94BB07E0918501F09120
:100650008601EE0FFF1FEE0FFF1FEC5FFE4F0081C4
:10066000118122813381AB01BC01402751276227D0
:10067000732781E090E00E94A60740C4E0918501C5
:10068000F0918601EE0FFF1FEE0FFF1FEC5FFE4F94
:1006900040815181628173810E94A6072FC4C0915D
:1006A0008901D0918A0180918501909186010E94F3
:1006B000BB07CC0FDD1FCC0FDD1FCC5FDE4F688387
:1006C00079838A839B831AC4E0918501F091860126
:1006D000EE0FFF1FEE0FFF1FEC5FFE4F40815181B9
:1006E000628173818091890190918A010E94A6079D
:1006F00005C4C0918901D0918A01809185019091B2
:1007000086010E94BB07CC0FDD1FCC0FDD1FCC5F25
:10071000DE4F688379838A839B83F0C3E0918901EC
:10072000F0918A01EE0FFF1FEE0FFF1FEC5FFE4FEF
:100730001082118212821382E1C3C0918901D0918B
:100740008A01E0908501F090860100918701109167
:100750008801CC0FDD1FCC0FDD1FCC5FDE4F288161
:1007600039814A815B810F2EFDE8CF2EF1E0DF2E2B
:10077000F02D6BE070E080E090E00E9472006883F2
:1007800079838A839B83BAC3C0918901D0918A01FE
:10079000E0908501F0908601009187011091880119
:1007A000CC0FDD1FCC0FDD1FCC5FDE4F28813981E0
:1007B0004A815B810F2EFDE8CF2EF1E0DF2EF02D78
:1007C0006CE070E080E090E00E94720068837983C2
:1007D0008A839B8393C3C0918901D0918A01E09061
:1007E0008501F09086010091870110918801CC0F5E
:1007F000DD1FCC0FDD1FCC5FDE4F288139814A81A0
:100800005B810F2EFDE8CF2EF1E0DF2EF02D6DE0A5
:1008100070E080E090E00E947200688379838A83B0
:100820009B836CC3C0918901D0918A01E0918501BD
:10083000F0918601EE0FFF1FEE0FFF1FEC5FFE4FE2
:10084000E080F18002811381CC0FDD1FCC0FDD1F12
:10085000CC5FDE4F288139814A815B810F2EFDE814
:10086000CF2EF1E0DF2EF02D6BE070E080E090E025
:100870000E947200688379838A839B833FC3C091FF
:100880008901D0918A01E0918501F0918601EE0FF6
:10089000FF1FEE0FFF1FEC5FFE4FE080F180028133
:1008A0001381CC0FDD1FCC0FDD1FCC5FDE4F288105
:1008B00039814A815B810F2EFDE8CF2EF1E0DF2EDA
:1008C000F02D6CE070E080E090E00E9472006883A0
:1008D00079838A839B8312C3C0918901D0918A0155
:1008E000E0918501F0918601EE0FFF1FEE0FFF1FD3
:1008F000EC5FFE4FE080F18002811381CC0FDD1FA1
:10090000CC0FDD1FCC5FDE4F288139814A815B81AE
:100910000F2EFDE8CF2EF1E0DF2EF02D6DE070E020
:1009200080E090E00E947200688379838A839B83D1
:10093000E5C2C0918901D0918A01E0908501F090D3
:1009400086010091870110918801CC0FDD1FCC0F2B
:10095000DD1FCC5FDE4F288139814A815B810F2EFC
:10096000FDE8CF2EF1E0DF2EF02D60E170E080E0B9
:1009700090E00E947200688379838A839B83BEC261
:10098000C0918901D0918A01E0908501F0908601A3
:100990000091870110918801CC0FDD1FCC0FDD1F66
:1009A000CC5FDE4F288139814A815B810F2EFDE8C3
:1009B000CF2EF1E0DF2EF02D61E170E080E090E0DD
:1009C0000E947200688379838A839B8397C2C09157
:1009D0008901D0918A01E0918501F0918601EE0FA5
:1009E000FF1FEE0FFF1FEC5FFE4FE080F1800281E2
:1009F0001381CC0FDD1FCC0FDD1FCC5FDE4F2881B4
:100A000039814A815B810F2EFDE8CF2EF1E0DF2E88
:100A1000F02D60E170E080E090E00E947200688359
:100A200079838A839B836AC2C0918901D0918A01AC
:100A3000E0918501F0918601EE0FFF1FEE0FFF1F81
:100A4000EC5FFE4FE080F18002811381CC0FDD1F4F
:100A5000CC0FDD1FCC5FDE4F288139814A815B815D
:100A60000F2EFDE8CF2EF1E0DF2EF02D61E170E0DA
:100A700080E090E00E947200688379838A839B8380
:100A80003DC2C0918901D0918A01CC0FDD1FCC0FEE
:100A9000DD1FCC5FDE4F288139814A815B810F2EBB
:100AA000FDE8CF2EF1E0DF2EF02DE12CF12C8701B7
:100AB000E39460E170E080E090E00E94720068835F
:100AC00079838A839B831AC2C0918901D0918A015C
:100AD000CC0FDD1FCC0FDD1FCC5FDE4F28813981AD
:100AE0004A815B810F2EFDE8CF2EF1E0DF2EF02D45
:100AF000E12CF12C8701E39461E170E080E090E06B
:100B00000E947200688379838A839B83F7C1E09196
:100B10008901F0918A01EE0FFF1FEE0FFF1FEC5FBE
:100B2000FE4F2081318142815381E0908501F09018
:100B3000860100918701109188010F2EFDE8CF2ECC
:100B4000F1E0DF2EF02D61E170E080E090E00E94A6
:100B50007200D4C1E0918501F0918601EE0FFF1F74
:100B6000EE0FFF1FEC5FFE4FE080F18002811381EA
:100B7000E0918901F0918A01EE0FFF1FEE0FFF1F38
:100B8000EC5FFE4F20813181428153810F2EFDE8C1
:100B9000CF2EF1E0DF2EF02D61E170E080E090E0FB
:100BA0000E947200ABC18091890190918A0190935B
:100BB0008F0180938E01A2C180918D0182FF9EC121
:100BC0008091890190918A0190938F0180938E0189
:100BD00095C180918D0182FD91C180918901909193
:100BE0008A0190938F0180938E0188C180918D013D
:100BF00084FD84C18091890190918A0190938F0135
:100C000080938E017BC180918D0184FD77C182FD2F
:100C100075C18091890190918A0190938F01809391
:100C20008E016CC180918D0184FD02C082FF66C17E
:100C30008091890190918A0190938F0180938E0118
:100C40005DC180918D0184FF59C18091890190918E
:100C50008A0190938F0180938E0150C160918E0123
:100C600070918F0180E090E00E94E20880918901FC
:100C700090918A0190938F0180938E013FC10E94D1
:100C8000160970938F0160938E0138C10E94160976
:100C900070938F0160938E0180918D0180628093AB
:100CA0008D012CC1E0918901F0918A01EE0FFF1FA7
:100CB000EE0FFF1FEC5FFE4F608171818281938197
:100CC0000E94E2081BC1C0918901D0918A010E9453
:100CD0001609CC0FDD1FCC0FDD1FCC5FDE4F688304
:100CE00079838A839B830AC1E0918901F0918A010B
:100CF000EE0FFF1FEE0FFF1FEC5FFE4F8081918113
:100D0000A281B381880F991FAA1FBB1F8083918383
:100D1000A283B383F3C0E0918901F0918A01EE0FC1
:100D2000FF1FEE0FFF1FEC5FFE4F80819181A281BC
:100D3000B381B695A7959795879580839183A28374
:100D4000B383DCC080918D01806280938D01D6C019
:100D500080918D018F7D80938D01D0C0209189017C
:100D600030918A01F901EE0FFF1FEE0FFF1FEC5FBC
:100D7000FE4F80819181A281B381F9013196EE0FFE
:100D8000FF1FEE0FFF1FEC5FFE4F4081518162811C
:100D90007381542F4427842B952BE0918501F0918A
:100DA0008601EE0FFF1FEE0FFF1FEC5FFE4F40812D
:100DB0005181628173810E94A607A0C04091850184
:100DC000509186016091870170918801FA01EE0FC0
:100DD000FF1FEE0FFF1FEC5FFE4F80819181A2810C
:100DE000B3814F5F5F4F6F4F7F4F440F551F440FCD
:100DF000551FFA01EC5FFE4F408151816281738182
:100E0000542F4427842B952BC0918901D0918A01BE
:100E10000E94BB07CC0FDD1FCC0FDD1FCC5FDE4F68
:100E2000688379838A839B8369C02091890130918B
:100E30008A01F901EE0FFF1FEE0FFF1FEC5FFE4F5F
:100E400080819181A281B381F9013196EE0FFF1F5C
:100E5000EE0FFF1FEC5FFE4F408151816281738175
:100E6000542F4427842B952BE0918501F091860126
:100E7000EE0FFF1FEE0FFF1FEC5FFE4F4081518111
:100E8000628173810E94A60739C04091850150910B
:100E900086016091870170918801FA01EE0FFF1FB2
:100EA000EE0FFF1FEC5FFE4F80819181A281B38125
:100EB0004F5F5F4F6F4F7F4F440F551F440F551FBC
:100EC000FA01EC5FFE4F4081518162817381542FA2
:100ED0004427842B952BC0918901D0918A010E94CF
:100EE000BB07CC0FDD1FCC0FDD1FCC5FDE4F68834F
:100EF00079838A839B8302C00E9419021092840125
:100F00000E94F60102C00E9419020E941C010E9468
:100F10006601DF91CF911F910F91FF90EF90DF90CD
:100F2000CF90089580E090E00CC0FC01EE0FFF1F11
:100F3000EE0FFF1FE856FE4F1082118212821382BD
:100F400001968C3221E0920780F308958C3221E0E3
:100F5000920770F4880F991F880F991FFC01E856BB
:100F6000FE4F408351836283738380E090E0089555
:100F700081E090E008958C3221E0920760F4880FC0
:100F8000991F880F991FFC01E856FE4F60817181FF
:100F900082819381089560E070E0CB0108950E9402
:100FA00019020E946902FDCF809148068111CFC0CD
:100FB000E9E4F6E0108211821282138264E0648315
:100FC000158286E186831782108611861286138623
:100FD0001486158616861786108A118A128A138A35
:100FE0009FE0948B158A868B178A108E118E128E35
:100FF000138E148E158E168E178E10A211A212A2A9
:1010000013A296E094A315A29DE196A317A210A6A1
:1010100011A612A613A675E074A715A686A717A693
:1010200010AA81E081AB12AA13AA30E134AB15AA51
:1010300086AB17AA30AF11AE12AE13AE14AE15AE1A
:1010400093E096AF17AEE9E8F6E0108258E05183DE
:101050001282138241E14483158286831782E1E97B
:10106000F6E0408311821282138284831582968374
:101070001782E9E9F6E0108211821282138214824B
:10108000158224E226831782E1EAF6E0808311824A
:101090001282138228E12483158286831782E9EA6B
:1010A000F6E0208311821282138294831582968344
:1010B0001782E1EBF6E0408311821282138274837F
:1010C000158296831782E9EBF6E010821182128274
:1010D0001382148215824EE146831782E1ECF6E01A
:1010E00042E0408311821282138224831582668338
:1010F0001782E9ECF6E01082518312821382248376
:10110000158229E026831782E1EDF6E01082118234
:101110001282138223E12483158227E1268317821A
:10112000E9EDF6E030831182128213824483158246
:1011300096831782E1EEF6E010821182128213820A
:10114000148215829FE19683178280934806089542
:101150008931910590F4880F991F880F991F880F86
:10116000991FFC01E75BF94F208131814281538156
:101170006481758186819781089520E030E040E0A8
:1011800050E060E070E080E090E0089580E090E062
:101190000CC0FC01EE0FFF1FEE0FFF1FEC5EF84FBF
:1011A000108211821282138201968436910588F38F
:1011B00083E690E0909313078093120781E0809379
:1011C00011070895409112075091130741155105D9
:1011D00051F120911107222389F09A01220F331F28
:1011E000220F331FF901EC5EF84F60837183828315
:1011F00093831092110780E090E008959A012150A6
:1012000031093093130720931207220F331F220F47
:10121000331FF901EC5EF84F6083718382839383FF
:1012200080E090E0089581E090E0089580911107BA
:10123000811129C08091120790911307833691057F
:1012400098F49C012F5F3F4F3093130720931207B0
:10125000880F991F880F991FFC01EC5EF84F608181
:10126000718182819381089521E020931107880F75
:10127000991F880F991FFC01EC5EF84F6081718106
:1012800082819381089560E070E0CB010895EE0FB4
:10129000FF1F0590F491E02D099497FB10F8169428
:1012A00000080F93083098F00850232F342F452F53
:1012B000562F672F782F892F902DF4CF059497956F
:1012C00087957795679557954795379527950A950B
:0A12D000AAF70F910895F894FFCFDC
:00000001FF
